:020000040000FA
:1000000040BA704740BA704740BA704740BA70472C
:1000100040BA704740BA704740BA704740BA70471C
:10002000C0BA7047C0BA7047C0BA7047C0BA70470C
:10003000C0BA7047C0BA7047C0BA7047C0BA7047FC
:100040004FEA3000704700004FEA30007047000070
:100050004FEA3000704700004FEA30007047000060
:100060004FEA3000704700004FEA30007047000050
:100070004FEA3000704700004FEA3000704740EA16
:10008000010310B59B070FD1042A0DD310C808C96E
:10009000121F9C42F8D020BA19BA884201D9012017
:1000A00010BD4FF0FF3010BD1AB1D30703D0521C62
:1000B00007E0002010BD10F8013B11F8014B1B1B9D
:1000C00007D110F8013B11F8014B1B1B01D1921E07
:1000D000F1D1184610BD40EA0103024630B59B0736
:1000E00010D14FF0013400E008C208C91D1B9D4328
:1000F00015EAC41FF8D013F0FF0102F8011B0DD060
:100100001B0AF8E711F8013B002B02F8013B05D070
:1001100011F8013B002B02F8013BF3D130BD032A5B
:1001200040F2308010F0030C00F0158011F8013B14
:10013000BCF1020F624498BF11F801CB00F8013BFB
:1001400038BF11F8013BA2F1040298BF00F801CBBF
:1001500038BF00F8013B11F0030300F02580083A96
:10016000C0F0088051F8043B083A51F804CBA0E8ED
:100170000810F5E7121D5CBF51F8043B40F8043B42
:10018000AFF30080D20724BF11F8013B11F801CB77
:1001900048BF11F8012B24BF00F8013B00F801CB48
:1001A00048BF00F8012B704710B5203AC0F00B8013
:1001B000B1E81850203AA0E81850B1E81850A0E86B
:1001C0001850BFF4F5AF5FEA027C24BFB1E81850C5
:1001D000A0E8185044BF18C918C0BDE810405FEA35
:1001E000827C24BF51F8043B40F8043B08BF7047B1
:1001F000D20728BF31F8023B48BF11F8012B28BFB6
:1002000020F8023B48BF00F8012B7047034600204E
:10021000704710B501F09CF9002010BD10B50446E0
:1002200004F18044204601F0B5F9002010BD000023
:1002300010B5044672B6200B044949440968884742
:10024000034848440068804762B610BD240000009F
:100250001C00000070B505460E46144672B6A20892
:1002600031462846044B4B441B6898470348484492
:100270000068804762B670BD280000001C000000C6
:1002800010B572B6044940F28A40044A4A441268E2
:10029000904762B610BD00006E7AFCAB20000000F3
:1002A00010B500234FF0844404EB401242F8213093
:1002B00010BD30B5C2F118056FF07F4444FA05F364
:1002C00072B6046803FA01F5AC43046062B630BD4F
:1002D00010B54FF0844303EB401252F82120C2F1D5
:1002E00001034FF0844404EB401242F8213010BD6A
:1002F00030B5C2F118056FF07F4444FA05F372B6C9
:10030000046803FA01F56C40046062B630BD10B5B4
:1003100001234FF0844404EB401242F8213010BD19
:1003200030B5C2F118056FF07F4444FA05F372B698
:10033000046803FA01F52C43046062B630BD02681C
:1003400001238B409A430260704730B5C2F1180513
:100350006FF07F4444FA05F3046803FA01F5AC43F7
:10036000046030BD02461068C84000F001007047CC
:1003700030B50346C2F118056FF07F4040FA05F42E
:100380001868C840204030BD2DE9F04107460C46B2
:1003900015461E46DDF81880AD49781A8F4273D095
:1003A00009DCAC48384468B1B0F5805F41D0B0F5A5
:1003B000005F3DD173E0B0F5805F6FD0B0F5405F76
:1003C000F7D10CE14FF08040806840F001004FF021
:1003D00080418860012300222146104600F0C8F9C0
:1003E000012D09D19B48404240680121A1400843AA
:1003F00098494942486008E09648404240680121D7
:10040000A1408843934949424860012E08D192484F
:1004100000680121A14008439049C1F8000207E0AB
:100420008D4801680120A04081438C48C0F800122B
:100430000AE14FF08040806840F002004FF08041B8
:100440008860012300222146184600F091F9012D11
:1004500007D1834841680120A040014380484160A2
:1004600006E07F4841680120A04081437C4841600C
:10047000B8F1010F09D17B4800680121A140084370
:100480007649C1F8000308E03EE0764801680120A3
:10049000A04081437148C0F80013D5E069E04FF0F7
:1004A0008040806840F004004FF080418860012364
:1004B00000222146022000F05BF9012D07D16A4895
:1004C00041680120A04001436748416006E066485A
:1004D00041680120A040814363484160012E09D159
:1004E0005D48103000680121A14008435B49C1F814
:1004F000100208E05848103001680120A0408143F4
:100500005648C0F810129FE04FF08040806840F0DD
:1005100010004FF080418860012300222146032013
:1005200000F026F9012D07D1494841680120A0407B
:1005300001434748416006E0454840680121A14029
:10054000884343494860012E09D14348203001685F
:100550000120A04001434148C0F8201208E03E4875
:10056000203000680121A14088433C49C1F82002A5
:100570006AE04FF08040806840F020004FF08041FA
:100580008860012300222146042000F0F1F8012DAB
:1005900007D1364841680120A040014333484160FB
:1005A00006E0324840680121A14088432F49486055
:1005B000B8F1010F09D12B48203001680120A0407B
:1005C00001432648C0F8201308E026482030006880
:1005D0000121A14088432149C1F8200334E04FF0B4
:1005E0008040806840F400104FF080418860012313
:1005F00000222146052000F0BBF8012D07D11C4840
:1006000040680121A14008431949486006E01848A4
:1006100040680121A140884315494860012E09D155
:100620000D48303001680120A04001430B48C0F85C
:10063000301208E00848303000680121A1408843AA
:100640000649C1F8300200BF00BFBDE8F0810000DC
:100650000050014000F0FEBF0002014000000140D8
:1006600000200140000301400030014000600140D3
:1006700000800140026801238B405A4002607047AD
:1006800030B5C2F118056FF07F4444FA05F30468F1
:1006900003FA01F56C40046030BD026801238B4011
:1006A0001A430260704730B5C2F118056FF07F44FD
:1006B00044FA05F3046803FA01F52C43046030BDE5
:1006C0002DE9F04105460E461746002400F014FDC2
:1006D00014B10120BDE8F08100F066FD00F060FD7E
:1006E0000020F7E700F01F0201219140024A430970
:1006F00042F823107047000080E100E000F01F0284
:10070000012191404209920002F1E022C2F8001159
:10071000704700000021134A1160002001E000BF73
:10072000401CB0F57A7FFAD30E49496A41F00201C4
:100730000C4A51621146896A0B4A1140094A91627A
:100740001146896A094A1143064A91621146496A6B
:1007500021F00401516200BF0249096B0029FBD05E
:10076000704700000010034000FEE0FC3C00050064
:1007700070B506285CD2DFE800F0035CB9FDFCFB35
:10078000632A33D9062916D2FE4C246801EB810670
:100790001F25B540AC43FC4DC5F80041A2F16404EF
:1007A00001EB8105AC40F84DD5F800512C43F64DD6
:1007B000C5F800411AE00C2918D2F24C241D246817
:1007C0008D1F05EB85061F25B540AC43EE4DC5F8E2
:1007D0000441A2F164048D1F05EB8505AC40EA4D90
:1007E000D5F804512C43E84DC5F80441E64C246883
:1007F0004E000325B540AC43E34D2C60632A01D97C
:10080000012400E014464D00AC40DF4D2D682C4320
:10081000DD4D2C60DD4C246801258D40AC43DB4D63
:100820002C602C46246803FA01F52C43D74D2C602C
:10083000BAE2632A34D9062917D2D24C103424687C
:1008400001EB81061F25B540AC43CF4DC5F81041E3
:10085000A2F1640401EB8105AC40CB4DD5F81051F9
:100860002C43C94DC5F810411AE00C2918D2C54CCB
:10087000143424688D1F05EB85061F25B540AC4355
:10088000C14DC5F81441A2F164048D1F05EB850527
:10089000AC40BD4DD5F814512C43BB4DC5F81441A7
:1008A000B94C64684E000325B540AC43B64D6C604E
:1008B000632A01D9012400E014464D00AC40B24D3A
:1008C0006D682C43B04D6C60B04C10342468012529
:1008D0008D40AC43AD4D10352C602C46246803FA96
:1008E00001F52C43A94D10352C605DE2632A34D903
:1008F000062917D2A34C2034246801EB81061F255A
:10090000B540AC43A04DC5F82041A2F1640401EB11
:100910008105AC409C4DD5F820512C439A4DC5F82B
:1009200020411AE00C2918D2964C243424688D1FDB
:1009300005EB85061F25B540AC43934DC5F8244112
:10094000A2F164048D1F05EB8505AC408E4DD5F8F2
:1009500024512C438C4DC5F824418B4CA4684E0087
:100960000325B540AC43884DAC60632A05D902E04D
:1009700067E1CFE01BE0012400E014464D00AC40ED
:10098000814DAD682C43804DAC60804C2034246890
:1009900001258D40AC437D4D20352C602C462468CC
:1009A00003FA01F52C43794D20352C60FCE1632AD4
:1009B00070D9062917D2734C6034246801EB810684
:1009C0001F25B540AC43704DC5F86041A2F16404E9
:1009D00001EB8105AC406C4DD5F860512C436A4D5C
:1009E000C5F8604156E00C2919D2664C643424687D
:1009F0008D1F05EB85061F25B540AC43624DC5F83C
:100A00006441A2F164048D1F05EB8505AC405E4D89
:100A1000D5F864512C435C4DC5F864413AE0122985
:100A20001BD2584C68342468A1F10C0505EB8506EF
:100A30001F25B540AC43544DC5F86841A2F164048C
:100A4000A1F10C0505EB8505AC404F4DD5F868517B
:100A50002C434D4DC5F868411CE018291AD2494C69
:100A60006C342468A1F1120505EB85061F25B540FD
:100A7000AC43454DC5F86C41A2F16404A1F11205E7
:100A800005EB8505AC40404DD5F86C512C433E4DEF
:100A9000C5F86C41102914D23B4C246A4E00032542
:100AA000B540AC43384D2C62632A01D9012400E0E3
:100AB00014464D00AC40344D2D6A2C43324D2C620F
:100AC00017E0314C646AA1F110056E000325B540B2
:100AD000AC432D4D6C62632A01D9012400E0144619
:100AE000A1F110056D00AC40274D6D6A2C43264DD9
:100AF0006C62264C4034256801248C40A543234C6D
:100B000040342560246803FA01F52C431F4D40351D
:100B10002C6049E1632A57D9062917D2194C703441
:100B2000246801EB81061F25B540AC43164DC5F87E
:100B30007041A2F1640401EB8105AC40124DD5F87F
:100B400070512C43104DC5F870413DE00C291FD267
:100B50000C4C743424688D1F05EB85061F25B540A9
:100B6000AC43094DC5F87441A2F164048D1F05EB37
:100B70008505AC40044DD5F874512C43024DC5F8A1
:100B8000744121E0000101400000014000060140E5
:100B9000122919D2854C2468A1F10C0505EB8506B4
:100BA0001F25B540AC43824DC5F87841A2F16404DD
:100BB000A1F10C0505EB8505AC407D4DD5F87851CC
:100BC0002C437B4DC5F87841102914D2784C246B06
:100BD0004E000325B540AC43754D2C63632A01D903
:100BE000012400E014464D00AC40714D2D6B2C43A8
:100BF0006F4D2C6317E06E4C646BA1F110056E0015
:100C00000325B540AC436A4D6C63632A01D90124C6
:100C100000E01446A1F110056D00AC40644D6D6B11
:100C20002C43634D6C63634C256801248C40A543C1
:100C3000604C2560246803FA01F52C435D4D2C605F
:100C4000B2E0632A70D9062917D2584C08342468B8
:100C500001EB81061F25B540AC43554DC5F88041D9
:100C6000A2F1640401EB8105AC40514DD5F88051EF
:100C70002C434F4DC5F8804156E00C2919D24B4CFE
:100C80000C3424688D1F05EB85061F25B540AC4349
:100C9000474DC5F88441A2F164048D1F05EB85051D
:100CA000AC40434DD5F884512C43414DC5F88441A7
:100CB0003AE012291BD23D4C10342468A1F10C05F6
:100CC00005EB85061F25B540AC43394DC5F8884175
:100CD000A2F16404A1F10C0505EB8505AC40344D8F
:100CE000D5F888512C43324DC5F888411CE01829AD
:100CF0001AD22E4C14342468A1F1120505EB850696
:100D00001F25B540AC432A4DC5F88C41A2F16404BF
:100D1000A1F1120505EB8505AC40254DD5F88C51A8
:100D20002C43234DC5F88C41102914D2204C246C3F
:100D30004E000325B540AC431D4D2C64632A01D9F8
:100D4000012400E014464D00AC40194D2D6C2C439D
:100D5000174D2C6417E0164C646CA1F110056E0061
:100D60000325B540AC43124D6C64632A01D90124BC
:100D700000E01446A1F110056D00AC400C4D6D6C07
:100D80002C430B4D6C640B4C1034256801248C40B3
:100D9000A543084C10342560246803FA01F52C4360
:100DA000044D10352C6000BF00BF70BD78010140BC
:100DB000000001405006014070B504460D4616463D
:100DC00004F180442A462146304600F0D1FE00203E
:100DD00070BD016821F008010160704702210161C6
:100DE0007047C16821F00201C1607047C16841F0DD
:100DF0000201C160704701460869C0F340007047B6
:100E0000042101617047C16821F00401C16070478D
:100E1000C16841F00401C160704701460869C0F330
:100E200080007047012101617047C16821F0010114
:100E3000C1607047C16841F00101C160704701465F
:100E4000086900F0010070474FF4007101617047BC
:100E5000C16821F40071C1607047C16841F400713C
:100E6000C160704701460869C0F3402070470821FF
:100E700001617047C16821F00801C1607047C16815
:100E800041F00801C160704701460869C0F3C00025
:100E90007047102101617047C16821F01001C160E5
:100EA0007047C16841F01001C16070470146086990
:100EB000C0F3001070474FF4807101617047C16842
:100EC00021F48071C1607047C16841F48071C160D4
:100ED000704701460869C0F30020704770B50546A9
:100EE0000C463548284418B1B0F5805F12D108E0AF
:100EF0004FF08040806840F480304FF0804188603F
:100F000008E04FF08040806840F480304FF080412E
:100F1000886000BF00BF2846FFF75BFF28682749AD
:100F20000840286020788002617840EA0120A1789A
:100F300040EA4121E078401E41EA0010217940EA70
:100F4000013061790843296808432860012028613D
:100F5000E86820F40570E860A0798000E17940EA53
:100F60000110217A40EA4120E9680843E86012480C
:100F7000284418B1B0F5805F1CD10DE0A079E1796B
:100F80000843217A084318B12E20FFF7B7FB02E08F
:100F90002E20FFF7A7FB0DE0A079E1790843217A25
:100FA000084318B13B20FFF7A9FB02E03B20FFF705
:100FB00099FB00BF00BF70BD0040FDBF08E0FDFF12
:100FC00001468868012222EAD000704701468868FD
:100FD000C0F34000704701468868012222EA900071
:100FE0007047016841F00801016070470146486898
:100FF00070470246516000BF906800F0080000286A
:10100000FAD05068704741607047826842F0010230
:101010008260416000BF826802F00102002AFAD0BB
:10102000704700004FF08040006800F00400C8B135
:101030004FF08040006800F0020020B128482949A4
:101040004944086035E02848006800F0010020B1FC
:1010500026482449494408602BE021482149494455
:10106000086026E04FF08040006800F00100D8B131
:101070001D48406A00F0020020B11948194949444E
:10108000086003E016481749494408601548484479
:1010900000680521B0FBF1F0C0EB00100001C008B2
:1010A00010494944086004E04FF4FA400D494944AE
:1010B00008604FF08040406800F0010030B10948FE
:1010C00048440068400807494944086005484844C6
:1010D00000680749B0FBF1F00649494408607047D1
:1010E000002D31012C00000000100340005A620264
:1010F00040420F003000000000B54FF08040806893
:1011000040F480004FF0804188600420052813D20D
:10111000DFE800F00306090C0F0000F0FFFD0BE014
:1011200000F03AFE08E000F013FE05E000F06EFE6D
:1011300002E000F04BFE00BF00BF4FF0804040686F
:1011400020F001004FF08041486008464068486048
:10115000FFF768FF00BD0146002070472DE9F04110
:1011600004460E46174604F18044324621460B4899
:10117000484400F095FB002509E008484844405DDC
:10118000795D884202D06019BDE8F0816D1CB542DE
:10119000F3D3A4F18044A019F6E700003400000066
:1011A00010B500F019FC10BD10B5002004494944E9
:1011B000087000221146104600F004F810BD00002F
:1011C000140000007FB506460C4615462A484844E0
:1011D0000068B0420AD1294848440068A04205D1BD
:1011E000274848440068A84200D17FBD22484844AF
:1011F00006602248484404602148484405600020B5
:1012000003460122162100901E48FFF7BDF8002377
:10121000752217210520FFF7ABFA00237622122151
:101220000520FFF7A5FA0123762213210520FFF7F9
:101230009FFAF0B28DF8090000208DF80400E0B2AA
:101240008DF80500E8B28DF8060008208DF807003B
:1012500001208DF8080000208DF80A008DF80B00A1
:101260008DF80C0001A90848FFF738FE0648FFF783
:10127000B8FE00BFB9E7000004000000080000004D
:101280000C0000000080014000C0024001484844BA
:10129000007870471400000001200249494408709A
:1012A0007047000014000000002002494944087003
:1012B000704700001400000010B50D484844006855
:1012C000B0F5805F00D910BD002409E0094848440A
:1012D000015D0948FFF78DFE084949440855641C23
:1012E0000348484400688442F0D300BFEBE70000A5
:1012F000100000003410000000C002403420000044
:101300002DE9F84F07460D46164616B90120BDE8EF
:10131000F88F464848444069A84201D80020F6E7C3
:1013200042484844008BB04201DA0020EFE73246E1
:1013300029463F48484400F0B3FA324639463C4813
:101340004844FEF79CFE08B90120E0E74FF0000B8F
:10135000324639463648484400F05CF908B14FF04F
:10136000010B32484844008B401E25EA00082F48F4
:101370004844008BB0420DD1002405E0385D2C4973
:1013800049440855601C84B228484844008BA04258
:10139000F4DC14E025484844028B41462448484484
:1013A00000F07EFA21484844008B401E284084B259
:1013B0001F494944081932463946FEF7B0FE00205D
:1013C000009000242CE0BBF1010F02D1404600F058
:1013D000E1F816484844028B41461548484400F05D
:1013E0002DF932463946284600F024F810B901207C
:1013F000009017E032463946284600F01BF810B935
:10140000012000900EE04FF0000A03E00AF1010015
:101410001FFA80FA42F210708245F7DB601C84B23A
:10142000032CD0DB00BF009871E7000034300000CF
:10143000503000002DE9F04705460E461746E819E2
:101440003F4949444969884202D90120BDE8F087F3
:101450000FB90020FAE7002000F03EFB00203949D8
:101460004944086003213748484402680068401C2A
:10147000344B4B441860344848448154C5F3074109
:10148000184602680068401C18602F484844815480
:10149000C5F30722184601680068401C18602A48F6
:1014A00048444254184602680068401C18602648A8
:1014B00048448554FFF700FF4FF0000A19E04FF44D
:1014C0008050204949440860FFF7F6FE002409E0F7
:1014D00016F8011B1D484844005D814200D029E0F8
:1014E000601C84B2B4F5805FF2DB0AF101001FFAE0
:1014F00080FABAEB173FE2D3C7F30B08B8F1000F3D
:1015000013DD10484844C0F80080FFF7D5FE0024E2
:1015100009E016F8011B0D484844005D814200D0E7
:1015200008E0601C84B24445F3DB012000F0D4FAEB
:1015300000208BE7012000F0CFFA012086E70000B1
:10154000343000001000000034100000342000008F
:1015500010B500F0C5FB002000F0BEFA00200B49DA
:1015600049440860C7210948484402680068401C93
:10157000064B4B441860064848448154FFF79CFED4
:10158000012000F0A9FA00F0BFFA10BD1000000021
:101590003410000010B5044600F0A2FB002000F05B
:1015A0009BFA002019494944086020211748484403
:1015B00002680068401C154B4B44186014484844AE
:1015C0008154C4F30742184601680068401C186043
:1015D0000F4848444254C4F3072218460168006883
:1015E000401C18600A484844425418460168006884
:1015F000401C1860064848444454FFF75DFE012033
:1016000000F06AFA00F080FA10BD0000100000003F
:101610003410000070B5034600240BE013F8015BA2
:10162000E843C5B211F8010B284008B1012070BD94
:10163000601C84B29442F1DB0020F8E72DE9F04110
:1016400004460E461546924848440068914988422F
:101650007ED1022D08DA284605EBD0714910A5EBA2
:10166000410109B1BDE8F08100F03AFB002000F033
:1016700033FA0020884949440860AD21864848442F
:1016800002680068401C844B4B44186083484844FF
:101690008154C6F30741184602680068401C186070
:1016A0007E4848448154C6F3072118460268006802
:1016B000401C186079484844815418460268006804
:1016C000401C186075484844865414F8011B18469D
:1016D00002680068401C186070484844815414F83F
:1016E000011B184602680068401C18606B4848449B
:1016F0008154FFF7E1FD012000F0EEF900F004FA5B
:10170000A81E85B2002730E0002000F0E5F9002097
:10171000614949440860AD215F4848440268006857
:10172000401C5D4B4B4418605C484844815414F89D
:10173000011B184602680068401C1860574848445E
:10174000815414F8011B184602680068401C00E030
:101750002BE01860514848448154FFF7ADFD01204B
:1017600000F0BAF900F0D0F97F1C05EBD571B7EBAA
:10177000610FC9D3002000F0AFF900204649494469
:10178000086004214448484402680068401C424BF9
:101790004B441860414848448154FFF78DFD0120B7
:1017A00000F09AF900F0B0F970E04FF000084DE059
:1017B00000F096FA002000F08FF9002036494944E5
:1017C000086002213448484402680068401C324BDB
:1017D0004B441860314848448154C6F307411846C9
:1017E00002680068401C18602C4848448154C6F3C5
:1017F0000721184602680068401C186027484844C2
:101800008154184602680068401C18602348484408
:10181000865400270DE014F8011B1F484844026855
:101820000068401C1C4B4B4418601C4848448154C1
:101830007F1CFF2FEFD9FFF73FFD012000F04CF98F
:1018400000F062F906F5807608F10108E91705EB6A
:101850001161B8EB212FABD3002000F03DF900203F
:101860000D494944086004210B4848440268006857
:10187000401C094B4B441860084848448154FFF70A
:101880001BFD012000F028F900F03EF900BFE9E659
:10189000343000004125BF0010000000341000006B
:1018A0002DE9F04180460C4615462DB160193149AD
:1018B00049444969884201D9BDE8F081002000F01F
:1018C0000BF900202C494944086003212A48484468
:1018D00002680068401C284B4B4418602748484465
:1018E0008154C4F30741184602680068401C186020
:1018F000224848448154C4F307221846016800680E
:10190000401C18601D48484442541846026800684C
:10191000401C1860194848448454FFF7CDFC002748
:1019200011E04FF48050144949440860FFF7C4FCAB
:101930004FF48052124949444046FEF7F0FB08F547
:101940008058781C87B2B7EB153FEAD3C5F30B0676
:10195000002E0ADD084848440660FFF7ADFC324619
:10196000074949444046FEF7DAFB012000F0B4F88D
:1019700000BFA1E734300000100000003410000068
:10198000342000002DE9F041002000F0A5F80020EF
:101990000E49494408609F200D49494408700420BD
:1019A0000A4949440860FFF787FC0A4848444578DB
:1019B0008678C778012000F08FF8280440EA0620D6
:1019C00040EA07042046BDE8F08100001000000056
:1019D000341000003420000010B5FFF7D3FF2C496D
:1019E00049440860084600682A49084440B12A4929
:1019F000084498B129490844F0B1012838D129E0B8
:101A000027A123484844001DFEF765FB4FF4001052
:101A10001F49494448614012088337E023A11C480C
:101A20004844001DFEF757FB4FF400101849494485
:101A300048614012088329E01FA115484844001D51
:101A4000FEF749FB4FF40000114949444861C012B8
:101A500008831BE01AA10E484844001DFEF73BFB1B
:101A60004FF080700A4949444861001308830DE033
:101A700015A107484844001DFEF72DFB4FF4001048
:101A80000349494448614012088300BF00BF10BDAC
:101A900034300000BFDA40FF2C05FDFFFEDFD2FF2F
:101AA0005353543235564630313642004D58323554
:101AB0004C3136303645000057323551363400004F
:101AC0005732355131323800556E6B6E6F77204684
:101AD0006C6173680000000010B504465CB9FFF744
:101AE000DBFB002211461046FFF76CFB1621054870
:101AF000FEF725FC05E016210248FEF7CEFDFFF7B4
:101B0000D3FB10BD0080014010B50020FFF7E4FFBB
:101B100005201449494408700220134949440860CB
:101B2000FFF7CAFB0120FFF7D7FF18E00020FFF7FF
:101B3000D3FF05200B49494408700020487002205B
:101B4000094949440860FFF7B7FB0120FFF7C4FFCC
:101B500006484844407800F0010000B900E0E5E79D
:101B600000BF10BD34100000100000003420000041
:101B70002DE9F84F07460E4615464FF0000AD046AD
:101B8000C34600240020009054484844008BB6FB14
:101B9000F0F100FB116B51484844008BA0EB0B04A3
:101BA0004E484844008BB5FBF0FA4C484844008B43
:101BB000B5FBF0F100FB1158BBF1000F2CD1BAF1CD
:101BC000000F08D1AAB231463846FFF799FB00282A
:101BD0007ED1BDE8F88F11E040484844028B314681
:101BE0003846FFF78DFB08B90020F2E73B48484430
:101BF000008B064439484844008B0744BAF1000082
:101C0000AAF1010AE8D11FFA88F231463846FFF7F7
:101C100077FB002860D1DCE7BAF1000F1FD1A045A7
:101C200015D9A8EB04000090A2B231463846FFF760
:101C300067FB08B90020CCE726442744009882B20D
:101C400031463846FFF75CFB002845D1C1E7AAB210
:101C500031463846FFF754FBD0BB0020B9E72D1BB7
:101C60001E484844008BB5FBF0FA1C484844008BE2
:101C7000B5FBF0F100FB1158A2B231463846FFF730
:101C80003FFB08B90020A4E72644274411E013488D
:101C90004844028B31463846FFF732FB08B9002032
:101CA00097E70E484844008B06440C484844008B94
:101CB0000744BAF10000AAF1010AE8D1B8F1000F17
:101CC0000AD01FFA88F231463846FFF719FB00E0C8
:101CD00002E008B900207CE701207AE734300000F8
:101CE00010B50020FFF7F8FE00200A4949440860BB
:101CF00006210848484402680068401C054B4B44D4
:101D00001860054848448154FFF7D6FA0120FFF7D0
:101D1000E3FE10BD100000003410000000210B4A4B
:101D20001160002001E000BF401CB0F57A7FFAD3BB
:101D30004FF08041096821F002014FF080421160AC
:101D40001146096841F0040111607047001003401A
:101D50004FF08041896841F080714FF0804291607E
:101D60000C49096A21F001010A4A1162002001E0D0
:101D700000BF401C6428FBD34FF08041096821F06C
:101D800001014FF0804211601146096821F0040101
:101D90001160704700E0014001210B4A11600020F2
:101DA00001E000BF401CB0F57A7FFAD34FF08041CC
:101DB000096821F002014FF0804211601146096864
:101DC00041F00401116070470010034000B5FEF7B8
:101DD000A1FC0D48406A40F001000B494862002315
:101DE00001E000BF5B1C42F210708342F9D3800611
:101DF000006840F001004FF080410860084600682C
:101E000020F00400086000BD0010034001210B4ACF
:101E10001162002001E000BF401CB0F57A7FFAD3C8
:101E20004FF08041096841F002014FF0804211609B
:101E30001146096841F00401116070470010034029
:101E400000000000FFFFFFFFFFFFFFFFFFFFFFFF9E
:101E50000000000000000000FFFFFFFF010600116E
:101E6000810600118107001101080011002D3101C8
:041E7000140000005A
:020000040000FA
:101E740001015243534E5F53574D3332585F535011
:101E8400495F5732355131323800000000000000FC
:101E9400000000000000000000000000000000003E
:101EA400000000000000000000000000000000002E
:101EB400000000000000000000000000000000001E
:101EC400000000000000000000000000000000000E
:101ED40000000000000000000000000000000000FE
:101EE40000000000000000000000000000000000EE
:101EF40000000500000000C0000000010010000008
:101F040000000000FF0000007017000070170000C0
:101F14000010000000000000FFFFFFFFFFFFFFFFB5
:101F240000000000000000000000000000000000AD
:101F3400000000000000000000000000000000009D
:101F4400000000000000000000000000000000008D
:101F5400000000000000000000000000000000007D
:0400000500000000F7
:00000001FF
